{
  "_format": "hh-sol-artifact-1",
  "contractName": "RewardPool",
  "sourceName": "contracts/RewardPool.sol",
  "abi": [
    {
      "inputs": [],
      "stateMutability": "nonpayable",
      "type": "constructor"
    },
    {
      "anonymous": false,
      "inputs": [
        {
          "indexed": true,
          "internalType": "address",
          "name": "previousOwner",
          "type": "address"
        },
        {
          "indexed": true,
          "internalType": "address",
          "name": "newOwner",
          "type": "address"
        }
      ],
      "name": "OwnershipTransferred",
      "type": "event"
    },
    {
      "inputs": [
        {
          "internalType": "address",
          "name": "_winner",
          "type": "address"
        },
        {
          "internalType": "uint256",
          "name": "_monster_id",
          "type": "uint256"
        },
        {
          "internalType": "uint256",
          "name": "_reward",
          "type": "uint256"
        }
      ],
      "name": "addReward",
      "outputs": [],
      "stateMutability": "nonpayable",
      "type": "function"
    },
    {
      "inputs": [
        {
          "internalType": "address",
          "name": "_address",
          "type": "address"
        },
        {
          "internalType": "uint256",
          "name": "_amount",
          "type": "uint256"
        }
      ],
      "name": "addUnclaimedUSD",
      "outputs": [],
      "stateMutability": "nonpayable",
      "type": "function"
    },
    {
      "inputs": [],
      "name": "bloodstone",
      "outputs": [
        {
          "internalType": "contract IERC20",
          "name": "",
          "type": "address"
        }
      ],
      "stateMutability": "view",
      "type": "function"
    },
    {
      "inputs": [],
      "name": "getEarlyClaimTax",
      "outputs": [
        {
          "internalType": "uint256",
          "name": "",
          "type": "uint256"
        },
        {
          "internalType": "uint256",
          "name": "",
          "type": "uint256"
        }
      ],
      "stateMutability": "view",
      "type": "function"
    },
    {
      "inputs": [
        {
          "internalType": "address",
          "name": "_address",
          "type": "address"
        }
      ],
      "name": "getUnclaimedUSD",
      "outputs": [
        {
          "internalType": "uint256",
          "name": "",
          "type": "uint256"
        }
      ],
      "stateMutability": "view",
      "type": "function"
    },
    {
      "inputs": [],
      "name": "legion",
      "outputs": [
        {
          "internalType": "address",
          "name": "",
          "type": "address"
        }
      ],
      "stateMutability": "view",
      "type": "function"
    },
    {
      "inputs": [],
      "name": "owner",
      "outputs": [
        {
          "internalType": "address",
          "name": "",
          "type": "address"
        }
      ],
      "stateMutability": "view",
      "type": "function"
    },
    {
      "inputs": [],
      "name": "renounceOwnership",
      "outputs": [],
      "stateMutability": "nonpayable",
      "type": "function"
    },
    {
      "inputs": [
        {
          "internalType": "address",
          "name": "_address",
          "type": "address"
        },
        {
          "internalType": "uint256",
          "name": "_amount",
          "type": "uint256"
        }
      ],
      "name": "returnTokenToPlayer",
      "outputs": [],
      "stateMutability": "nonpayable",
      "type": "function"
    },
    {
      "inputs": [
        {
          "internalType": "uint256",
          "name": "_tax",
          "type": "uint256"
        },
        {
          "internalType": "uint256",
          "name": "_startTax",
          "type": "uint256"
        }
      ],
      "name": "setEarlyClaimTax",
      "outputs": [],
      "stateMutability": "nonpayable",
      "type": "function"
    },
    {
      "inputs": [],
      "name": "totalHuntedCount",
      "outputs": [
        {
          "internalType": "uint256",
          "name": "",
          "type": "uint256"
        }
      ],
      "stateMutability": "view",
      "type": "function"
    },
    {
      "inputs": [
        {
          "internalType": "address",
          "name": "newOwner",
          "type": "address"
        }
      ],
      "name": "transferOwnership",
      "outputs": [],
      "stateMutability": "nonpayable",
      "type": "function"
    },
    {
      "inputs": [
        {
          "internalType": "address payable",
          "name": "_addr",
          "type": "address"
        },
        {
          "internalType": "uint256",
          "name": "amount",
          "type": "uint256"
        }
      ],
      "name": "withdrawBNB",
      "outputs": [],
      "stateMutability": "nonpayable",
      "type": "function"
    },
    {
      "inputs": [
        {
          "internalType": "uint256",
          "name": "amount",
          "type": "uint256"
        }
      ],
      "name": "withdrawBNBOwner",
      "outputs": [],
      "stateMutability": "nonpayable",
      "type": "function"
    }
  ],
  "bytecode": "0x608060405234801561001057600080fd5b50600061001b61009e565b600080546001600160a01b0319166001600160a01b0383169081178255604051929350917f8be0079c531659141344cd1fd0a4f28419497f9722a3daafe3b4186f6b6457e0908290a350600280546001600160a01b0319908116331790915560018054909116738cc6529d211eaf6936d003b521c61869131661da1790556100a2565b3390565b6108c7806100b16000396000f3fe608060405234801561001057600080fd5b50600436106100b45760003560e01c80638da5cb5b116100715780638da5cb5b14610176578063a97af1f21461017e578063ccde42f1146101aa578063eb444aed146101d6578063f2fde38b14610202578063fd043ddd14610228576100b4565b8063409bb000146100b957806344ea559a146100d857806346e48ec11461010a578063675857eb1461012e578063715018a6146101365780637a9998fa1461013e575b600080fd5b6100d6600480360360208110156100cf57600080fd5b5035610230565b005b6100d6600480360360608110156100ee57600080fd5b506001600160a01b0381351690602081013590604001356102c3565b61011261037c565b604080516001600160a01b039092168252519081900360200190f35b61011261038b565b6100d661039a565b6101646004803603602081101561015457600080fd5b50356001600160a01b0316610446565b60408051918252519081900360200190f35b610112610461565b6100d66004803603604081101561019457600080fd5b506001600160a01b038135169060200135610470565b6100d6600480360360408110156101c057600080fd5b506001600160a01b03813516906020013561050d565b6100d6600480360360408110156101ec57600080fd5b506001600160a01b038135169060200135610567565b6100d66004803603602081101561021857600080fd5b50356001600160a01b03166106b6565b6101646107b8565b6102386107be565b6001600160a01b0316610249610461565b6001600160a01b031614610292576040805162461bcd60e51b81526020600482018190526024820152600080516020610872833981519152604482015290519081900360640190fd5b604051339082156108fc029083906000818181858888f193505050501580156102bf573d6000803e3d6000fd5b5050565b6002546001600160a01b031633146102da57600080fd5b6001600160a01b038316600081815260056020908152604080832081516060810183528781524281850190815281840188815283546001818101865594885286882093516003909102909301928355905192820192909255905160029091015592825260069052205461034d90826107c2565b6001600160a01b0384166000908152600660205260409020556003546103749060016107c2565b600355505050565b6001546001600160a01b031681565b6002546001600160a01b031681565b6103a26107be565b6001600160a01b03166103b3610461565b6001600160a01b0316146103fc576040805162461bcd60e51b81526020600482018190526024820152600080516020610872833981519152604482015290519081900360640190fd5b600080546040516001600160a01b03909116907f8be0079c531659141344cd1fd0a4f28419497f9722a3daafe3b4186f6b6457e0908390a3600080546001600160a01b0319169055565b6001600160a01b031660009081526006602052604090205490565b6000546001600160a01b031690565b6104786107be565b6001600160a01b0316610489610461565b6001600160a01b0316146104d2576040805162461bcd60e51b81526020600482018190526024820152600080516020610872833981519152604482015290519081900360640190fd5b6040516001600160a01b0383169082156108fc029083906000818181858888f19350505050158015610508573d6000803e3d6000fd5b505050565b6002546001600160a01b0316331461052457600080fd5b6001600160a01b03821660009081526006602052604090205461054790826107c2565b6001600160a01b0390921660009081526006602052604090209190915550565b6002546001600160a01b0316331461057e57600080fd5b600154604080516370a0823160e01b8152306004820152905183926001600160a01b0316916370a08231916024808301926020929190829003018186803b1580156105c857600080fd5b505afa1580156105dc573d6000803e3d6000fd5b505050506040513d60208110156105f257600080fd5b5051116106305760405162461bcd60e51b815260040180806020018281038252602881526020018061084a6028913960400191505060405180910390fd5b6001546040805163a9059cbb60e01b81526001600160a01b038581166004830152602482018590529151919092169163a9059cbb9160448083019260209291908290030181600087803b15801561068657600080fd5b505af115801561069a573d6000803e3d6000fd5b505050506040513d60208110156106b057600080fd5b50505050565b6106be6107be565b6001600160a01b03166106cf610461565b6001600160a01b031614610718576040805162461bcd60e51b81526020600482018190526024820152600080516020610872833981519152604482015290519081900360640190fd5b6001600160a01b03811661075d5760405162461bcd60e51b81526004018080602001828103825260268152602001806108246026913960400191505060405180910390fd5b600080546040516001600160a01b03808516939216917f8be0079c531659141344cd1fd0a4f28419497f9722a3daafe3b4186f6b6457e091a3600080546001600160a01b0319166001600160a01b0392909216919091179055565b60035481565b3390565b60008282018381101561081c576040805162461bcd60e51b815260206004820152601b60248201527f536166654d6174683a206164646974696f6e206f766572666c6f770000000000604482015290519081900360640190fd5b939250505056fe4f776e61626c653a206e6577206f776e657220697320746865207a65726f206164647265737372657475726e546f6b656e546f506c61796572203a20496e73756666696369656e742046756e64734f776e61626c653a2063616c6c6572206973206e6f7420746865206f776e6572a26469706673582212205628fc3488aff012f137f57baaf54b40d6eb9b5918f1204b922a91f2c7b6845c64736f6c63430007000033",
  "linkReferences": {},
  "deployedLinkReferences": {}
}